:100000000C94B2000C94DA000C94DA000C94DA0030
:100010000C94DA000C94DA000C94DA000C94DA00F8
:100020000C94DA000C94DA000C94DA000C94DA00E8
:100030000C94DA000C94DA000C94DA000C94DA00D8
:100040000C942F060C94DA000C9409050C94AE1055
:100050000C94DA000C94DA000C94DA000C94DA00B8
:100060000C94DA000C94DA00036EDB363D9A999911
:10007000993DABAAAA2A3E000000803F084AD73B20
:100080003BCE016E84BCBFFDC12F3D6C74319ABD67
:1000900056833DDA3D00C77F11BED9E4BB4C3E918B
:1000A0006BAAAABE000000803F072C7AA5BA6CC5D7
:1000B00090DA3B9365FC8BBC53F810FD3C56928361
:1000C0004DBD879D3AB63DCBC9BF5BBE73DA0FC944
:1000D0003F05A84CCDB2D44EB93836A9020C50B960
:1000E000918688083CA6AAAA2ABE000000803F0686
:1000F00064EC1B3C04BC163E3BE5B93CC93C37C232
:100100009E5A3D660498083EEA69AAAA3E0000008D
:10011000803F000000080002010000030407000007
:1001200000000000000000000000250028002B0057
:1001300000000000240027002A0004040404040432
:100140000404020202020202030303030303010286
:100150000408102040800102040810200102040855
:100160001020D41011241FBECFEFD8E0DEBFCDBFCA
:1001700012E0A0E0B1E0E6EAF0E302C005900D92E3
:10018000A03DB107D9F723E0A0EDB2E001C01D9278
:10019000AF3AB207E1F710E0C2EBD0E004C021971C
:1001A000FE010E942517C13BD107C9F70E941E110D
:1001B0000C9451180C940000FC01538D448D252F94
:1001C00030E0842F90E0821B930B541710F0CF96F1
:1001D000089501970895FC01918D828D981761F023
:1001E000828DDF01A80FB11D5D968C91928D9F5F6E
:1001F0009F73928F90E008958FEF9FEF0895FC0119
:10020000918D828D981731F0828DE80FF11D858DCB
:1002100090E008958FEF9FEF0895FC01918D228D5E
:10022000892F90E0805C9F4F821B91098F739927E3
:10023000089580E090E0892B29F00E945E0F8111E3
:100240000C94000008954F925F926F927F928F926C
:100250009F92AF92BF92CF92DF92EF92FF920F9355
:100260001F93CF93DF934B015C018091D202909159
:10027000D302A091D402B091D50288159905AA05A0
:10028000BB0509F4D2C08CE3C82ED12CE12CF12C93
:10029000C501B401A70196010E94EF166093E9021F
:1002A000CA01B901A70196010E94EF166093EA0204
:1002B000C501B40120E13EE040E050E00E94EF16AD
:1002C000CA01B90128E130E040E050E00E94EF1699
:1002D0006093EB02C501B40120E831E541E050E054
:1002E0000E94EF1669017A01CA01B9016C5F7F4F64
:1002F0008F4F9F4F27E030E040E050E00E94EF1624
:100300006F5F6093EC02412C512C320140E004E617
:1003100010E0C0E9D1E0242F30E02E54384FF9012D
:10032000E370FF27309789F4C901B8010E94DB16FA
:10033000892B31F4C901BE010E94DB16892B29F4F7
:100340008EE691E0A0E0B0E004C08DE691E0A0E090
:10035000B0E0480E591E6A1E7B1ED301C201AA27B7
:10036000BB27C816D906EA06FB0610F04F5FD3CFAD
:100370004093EF02309799F4C90164E670E00E945F
:10038000DB16892B39F4C90160E971E00E94DB16A4
:10039000892B29F48EE691E0A0E0B0E004C08DE660
:1003A00091E0A0E0B0E0481A590A6A0A7B0AC41832
:1003B000D508E608F708C90164E670E00E94DB167C
:1003C000EC01C90160E971E00E94DB16ABE1B2E02B
:1003D00020E0213039F4309749F4209729F4009730
:1003E00029F402C04C9103C04DE101C04CE150E042
:1003F00060E070E0C416D506E606F70640F0C41AC1
:10040000D50AE60AF70A2F5F11962C3011F72F5FF5
:100410002093EE02C394C092ED028092D202909299
:10042000D302A092D402B092D502DF91CF911F9156
:100430000F91FF90EF90DF90CF90BF90AF909F9083
:100440008F907F906F905F904F900895089580E017
:1004500090E00895CF92DF92EF92FF926B017C01C2
:1004600020E030E040EC51E40E9486130E946B14BF
:1004700020E030E040EC51E40E94DF159B01AC012C
:10048000C701B6010E9482126B017C0120E030E0BE
:10049000A9010E947C1387FF0AC020E030E040ECF5
:1004A00051E4C701B6010E9483126B017C01C701B0
:1004B000B601FF90EF90DF90CF9008958F929F92BA
:1004C000AF92BF92CF92DF92EF92FF926B017C01CD
:1004D0009B01AC010E94C316811132C029E838E8A3
:1004E00048E05CE3C701B6010E9483120E942A0221
:1004F0004B015C010E946B140E94F8136B017C019C
:10050000072E000C880B990B0E9430149B01AC0144
:10051000C501B4010E94821220E030E040E752E4BD
:100520000E94DF150E946B140E94F8134CE34C9D4F
:1005300090014D9D300D1124C901860F971F02C0F7
:100540008FEF9FEFFF90EF90DF90CF90BF90AF9035
:100550009F908F900895CF92DF92EF92FF926B0160
:100560007C0120E030E044EB53E40E9486130E94BB
:100570006B1420E030E044EB53E40E94DF159B0154
:10058000AC01C701B6010E9482126B017C0120E020
:1005900030E0A9010E947C1387FF0AC020E030E010
:1005A00044EB53E4C701B6010E9483126B017C0146
:1005B000C701B601FF90EF90DF90CF9008952BED2B
:1005C0003FE049E450E40E94DF1520E030E044E3DE
:1005D00053E40E9486130C944C164F925F926F92D4
:1005E0007F928F929F92AF92BF92CF92DF92EF92C3
:1005F000FF92CF93DF93CDB7DEB72A970FB6F8946B
:10060000DEBF0FBECDBF9A878987CB01BA0124E632
:1006100031EA45E15AE40E9482126B017C012DE42B
:1006200030E54CE75FE30E94DF1526EB33EC42EB4D
:1006300053E40E9483120E94AB024B015C0123E64B
:1006400033E54CE75FE3C701B6010E94DF1521ECFB
:100650003AE34CE853E40E9483120E94AB026D839C
:100660007E838F839887C501B4010E94DF0228EB47
:100670003EE145EF5FE30E94DF152D813E814F8112
:1006800058850E9483122B013C01A5019401C501EC
:10069000B4010E9483120E94DF022AE037ED43EA90
:1006A0005CE30E94DF15A30192010E9483120E9465
:1006B000AB022B013C0126E036E441EC54E3C701D8
:1006C000B6010E94DF159B01AC0162E173E88BEB80
:1006D00091E40E9482124B015C010E94DF02698357
:1006E0007A838B839C83C301B2010E94DF026B017A
:1006F0007C019B01AC0169817A818B819C810E9484
:10070000DF150E94EF1269837A838B839C832BED24
:100710003FE049E450E4C301B2010E94DF1520E04C
:1007200030E044E353E40E9486130E9481132B01BE
:100730003C012BED3FE049E450E4C501B4010E94C7
:10074000DF1520E030E044E353E40E9486130E946A
:1007500081139B01AC01C701B6010E94DF15A30103
:1007600092010E941D1320E030E044E353E40E9414
:10077000DF152BED3FE049E450E40E94861320E0B2
:1007800030E040E751E40E9486130E942A026B0188
:100790007C01A984BA8483E5A80EB11C20E030E076
:1007A00040E751E46D817E818F8198850E94861398
:1007B000A70196010E948212F501608371838283F2
:1007C000938389859A85895A9F4F9E838D8320E0E4
:1007D00030E044E353E469817A818B819C810E94FB
:1007E000DF152BED3FE049E450E40E948613ED81D4
:1007F000FE8160837183828393832A960FB6F89477
:10080000DEBF0FBECDBFDF91CF91FF90EF90DF90A5
:10081000CF90BF90AF909F908F907F906F905F90A0
:100820004F9008954F925F926F927F928F929F9216
:10083000AF92BF92CF92DF92EF92FF920F931F93EE
:10084000CF93DF93CDB7DEB764970FB6F894DEBFD2
:100850000FBECDBF9A8789872A013B01C901B80124
:10086000E985FA8527A930AD41AD52AD0E948312CA
:10087000AB01BC0189859A850E94ED02E985FA8564
:10088000E95AFF4F80809180A280B380E985FA8584
:10089000ED5AFF4F208131814281538160E070E049
:1008A00080E491E40E9482120E942A02698B7A8B72
:1008B0008B8B9C8BC301B2010E94DF0269837A8318
:1008C0008B839C83C501B4010E94DF026D837E830C
:1008D0008F839887E985FA85C580D680E780F08484
:1008E000C701B6010E94DF0269877A878B879C87E0
:1008F0002BED3FE049E450E4C501B4010E94DF154F
:1009000020E030E044E353E40E9486130E94811308
:100910006D877E878F87988B2BED3FE049E450E40D
:10092000C701B6010E94DF1520E030E044E353E444
:100930000E9486130E9481134B015C01C980DA80FA
:10094000EB80FC80F7FAF094F7F8F09429853A856B
:100950004B855C856D817E818F8198850E94DF1536
:100960009B01AC01C701B6010E9482126B017C01A0
:100970002D853E854F855889C501B4010E94DF153C
:100980009B01AC01C701B6010E9486130E9471123F
:1009900020E030E044E353E40E94DF152BED3FE01C
:1009A00049E450E40E94861320E030E040E751E43F
:1009B0000E9486136B017C0120E030E044EB52E49E
:1009C000C301B2010E94D215181624F4C701B60162
:1009D000905802C0C701B60129893A894B895C89C0
:1009E0000E94831264960FB6F894DEBF0FBECDBF8F
:1009F000DF91CF911F910F91FF90EF90DF90CF90FB
:100A0000BF90AF909F908F907F906F905F904F902E
:100A100008951F920F920FB60F9211242F938F9368
:100A20009F93EF93FF93E0910603F091070380817A
:100A3000E0910C03F0910D0382FD12C09081809132
:100A40000F038F5F8F7320911003821751F0E09195
:100A50000F03F0E0EA50FD4F958F80930F0301C024
:100A60008081FF91EF919F918F912F910F900FBEF9
:100A70000F901F901895FC01848DDF01A80FB11D08
:100A8000A35ABF4F2C91848D90E001968F739927C4
:100A9000848FA689B7892C93A089B1898C918370A2
:100AA00080648C93938D848D981306C00288F3899B
:100AB000E02D80818F7D80830895EF92FF920F93C8
:100AC0001F93CF93DF93EC0181E0888F9B8D8C8DFA
:100AD000981305C0E889F989808185FD26C0F62E26
:100AE0000B8D10E00F5F1F4F0F731127E02E8C8DC1
:100AF000E8120CC00FB607FCFACFE889F9898081AB
:100B000085FFF5CFCE010E943B05F1CF8B8DFE0115
:100B1000E80FF11DE35AFF4FF0829FB7F8940B8F57
:100B2000EA89FB89808180620AC09FB7F894EE89C8
:100B3000FF896083E889F98980818370806480837C
:100B40009FBF81E090E0DF91CF911F910F91FF90C7
:100B5000EF900895CF93DF93EC01888D8823C9F03F
:100B6000EA89FB89808185FD05C0A889B9898C91B6
:100B700086FD0FC00FB607FCF5CF808185FFF2CF51
:100B8000A889B9898C9185FFEDCFCE010E943B05E4
:100B9000E7CFDF91CF91089590E0FC01EE5EFE4F2C
:100BA0002491FC01E25BFE4F3491FC01E65CFE4FB8
:100BB000E491EE2309F43CC0222339F1233091F073
:100BC00038F42130A9F0223001F584B58F7D12C0B0
:100BD000273091F02830A1F02430B9F480918000C2
:100BE0008F7D03C0809180008F77809380000DC03F
:100BF00084B58F7784BD09C08091B0008F7703C022
:100C00008091B0008F7D8093B000F0E0EE0FFF1F69
:100C1000EA5DFE4FA591B4919FB7F894611104C0AD
:100C20008C913095382302C0EC913E2B3C939FBFB2
:100C30000895CF93DF93EC0160E08E810E94CC0594
:100C400061E08E810E94CC0560E08E810E94CC051F
:100C50008BE891E00197F1F7DF91CF9108951F9212
:100C60000F920FB60F9211242F933F938F939F9360
:100C7000AF93BF938091F2029091F302A091F4029E
:100C8000B091F5023091E80223E0230F2D3720F4D4
:100C90000196A11DB11D05C026E8230F0296A11DD6
:100CA000B11D2093E8028093F2029093F302A09387
:100CB000F402B093F5028091E4029091E502A091D4
:100CC000E602B091E7020196A11DB11D8093E402F6
:100CD0009093E502A093E602B093E702BF91AF9133
:100CE0009F918F913F912F910F900FBE0F901F906A
:100CF00018956093E0027093E1028093E202909372
:100D0000E302DC01CB01845D9E4FAF4FBF4F809368
:100D1000DC029093DD02A093DE02B093DF0282E05A
:100D200090E09093DB028093DA022FB7F8948091E1
:100D3000F2029091F302A091F402B091F5022FBF5C
:100D40008093D6029093D702A093D802B093D90291
:100D50000895CF92DF92EF92FF920F931F938FB778
:100D6000F894C090F202D090F302E090F402F09078
:100D7000F5028FBF0091D6021091D7022091D802C0
:100D80003091D902C01AD10AE20AF30A6091E00256
:100D90007091E1028091E2029091E30248EEC41664
:100DA00043E0D406E104F104D0F0DC01CB0101966C
:100DB000A11DB11D8093E0029093E102A093E20295
:100DC000B093E30208511C4F2F4F3F4F0093D602C0
:100DD0001093D7022093D8023093D902C0CF1F912D
:100DE0000F91FF90EF90DF90CF9008950E94A90699
:100DF0000E9423018091EF0290E08E54984F089555
:100E00000E94A9060E9423018091EE0290E00895BD
:100E10000E94A9060E9423018091ED0290E00895AE
:100E2000CF92DF92EF92FF920F931F93CF93DF93B6
:100E30006C017C0187E0E80EF11CC0E0D0E0062FD9
:100E400010E0B8010C2E02C0759567950A94E2F780
:100E50006170F70181917F010E94CC052196C43019
:100E6000D10579F7C601DF91CF911F910F91FF90C6
:100E7000EF90DF90CF900C941906CF92DF92EF9213
:100E8000FF920F931F93CF93DF93EC01F62E642F05
:100E90008C810E94CC058D818F3F19F060E00E940B
:100EA000CC058F850F2D10E084FF25C06E0187E0F3
:100EB000C80ED11CE12CF12CB8010E2C02C0759586
:100EC00067950A94E2F76170F60181916F010E94C3
:100ED000CC05FFEFEF1AFF0A88E0E816F10461F78E
:100EE000CE01DF91CF911F910F91FF90EF90DF9096
:100EF000CF900C941906B80184E0759567958A9592
:100F0000E1F7CE010E9410076F2DCE01DF91CF9146
:100F10001F910F91FF90EF90DF90CF900C941007EE
:100F200041E00E943D0781E090E00895FF920F9319
:100F30001F93CF93DF93C091F002D091F1020E94F2
:100F4000A9060E94230109EE12E0F801F2800E9436
:100F5000A9060E942301C55ADF4FF801818190E064
:100F6000FCE3FF9E800D911D112499838883DF91FE
:100F7000CF911F910F91FF9008952F923F924F9222
:100F80005F926F927F928F929F92AF92BF92CF9219
:100F9000DF92EF92FF920F931F93CF93DF93CDB722
:100FA000DEB7E0970FB6F894DEBF0FBECDBF1C01D1
:100FB0008CE1EAECF1E0DE01119601900D928A9548
:100FC000E1F79E012F5F3F4F38A72FA3AE01435E8D
:100FD0005F4F5E8F4D8F890120E030E040EC51E49F
:100FE000D8016D917D918D919C910E948613F8019D
:100FF00061937193819391938F012D8D3E8DE217B3
:10100000F30751F7C980DA80EB80FC80D101ED91C4
:10101000FC91208131814281538160E070E084E362
:1010200093E40E948212AB01BC0197018601C101C9
:101030000E9412046F8F78A389A39AA30D811E8149
:101040002F81388541EC5AE263E373E4C1010E94C9
:1010500012046BA37CA38DA39EA329853A854B859F
:101060005C85F10167A970AD81AD92AD0E948312DC
:10107000AB01BC01C1010E94ED02F101ED5AFF4F2D
:10108000208131814281538160E070E080E491E40D
:101090000E9482120E942A0269A77AA78BA79CA7A6
:1010A000CD84DE84EF84F888D10112966C9170E0D3
:1010B0006F5F7F4F072E000C880B990B0E94301436
:1010C0004B015C01F10127A930AD41AD52ADC70123
:1010D000B6010E948312AB01BC01C1010E94ED0266
:1010E000F101E95AFF4F2081318142815381D101C1
:1010F00015966D917D918D919C9118970E94821209
:101100009F772BED3FE049E450E40E94DF1520E09B
:1011100030E044E353E40E9486130E949E169B0134
:10112000AC01C501B4010E9483129B01AC0160E0D7
:1011300070E080E89FE30E941D1320E030E044E36C
:1011400053E40E94DF152BED3FE049E450E40E9498
:101150008613AB01BC01705897018601C1010E9442
:1011600012042B013C0109891A892B893C894DE71E
:101170005FE365E57FE3C1010E9412044B015C015E
:101180000D891E892F89388DD101ED91FC91458102
:10119000568167817085C1010E9412046B017C0138
:1011A000098D1A8D2B8D3C8DD101ED91FC914285DD
:1011B000538564857585C1010E9412042F8D38A165
:1011C00049A15AA129833A834B835C832BA13CA17B
:1011D0004DA15EA12D833E834F83588729A53AA553
:1011E0004BA55CA529873A874B875C874D865E8631
:1011F0006F86788A898A9A8AAB8ABC8ACD8ADE8A87
:10120000EF8AF88E698F7A8F8B8F9C8F20E030E089
:1012100040E751E4D10119966D917D918D919C919A
:101220001C970E9486139B01AC01F10165857685B0
:10123000878590890E9482126B017C018E010F5F6D
:101240001F4FA7019601D8016D917D918D919C91C1
:101250000E948312F80161937193819391938F019E
:101260002D8D3E8DE217F30761F7D10113968C9116
:101270006CE30E94CF16682F70E080E090E00E943F
:1012800030149B01AC0169857A858B859C850E9411
:10129000831269877A878B879C87F1010190F0819F
:1012A000E02DF8A3EF8FF481F9A7FF23C1F020E030
:1012B00030E040E752E4AF8DB8A115966D917D9175
:1012C0008D919C9118970E94861329893A894B89A0
:1012D0005C890E9483126D8B7E8B8F8B988FEF8D34
:1012E000F8A101850023A1F020E030E040E752E4BE
:1012F00062857385848595850E9486132D893E8934
:101300004F89588D0E948312698F7A8F8B8F9C8FA3
:10131000D10114961C91112309F4F9C08D809E808F
:10132000AF80B88429893A894B895C892BA33CA377
:101330004DA35EA3C501B4010E9482120E942A023D
:101340006B017C01AF8DB8A16D917D918D919C91C8
:10135000133049F420E030E040E752E40E94861365
:101360009B01AC0111C0113039F0123051F424EE60
:1013700039E442E15EE308C020E030E040E05FE3B2
:1013800003C020E030E0A901C701B6010E94DF15CB
:101390006DA77EA78FA798AB49805A806B807C8011
:1013A000A3019201C301B2010E94C316811170C151
:1013B000A3019201C501B4010E9482120E942A0277
:1013C0009B01AC016DA57EA58FA598A90E947C13F9
:1013D00087FD5EC1002339F0EF8DF8A1628573852A
:1013E0008485958504C060E070E080E991E4133065
:1013F00049F420E030E040E752E40E9486139B016C
:10140000AC0111C0113039F0123051F424EE39E43E
:1014100042E15EE308C020E030E040E05FE303C06B
:1014200020E030E0A901C701B6010E94DF152B01C1
:101430003C01898C9A8CAB8CBC8CA5019401C501B4
:10144000B4010E94C316811130C12BA13CA14DA152
:101450005EA1C501B4010E9482120E942A029B0172
:10146000AC01C301B2010E947C1387FD1EC1F9A526
:10147000FF2349F0AF8DB8A115966D917D918D91A7
:101480009C91189704C060E070E080E890E413300D
:1014900049F420E030E040E752E40E9486139B01CB
:1014A000AC0111C0113039F0123051F424EE39E49E
:1014B00042E15EE308C020E030E040E05FE303C0CB
:1014C00020E030E0A901C701B6010E94DF154B0101
:1014D0005C01CD88DE88EF88F88CA7019601C701F2
:1014E000B6010E94C3168111EDC02BA13CA14DA1F4
:1014F0005EA1C701B6010E9482120E942A029B01CE
:10150000AC01C501B4010E947C1387FDDBC08101E1
:101510000F5E1F4FF801619171918F01072E000C32
:10152000880B990B0E94301420E030E040E752E431
:101530000E9486139B01AC01AFA1B8A56D917D916E
:101540008D919C910E948312EFA1F8A561937193F4
:1015500081939193F8A7EFA32D8D3E8D2E173F0712
:10156000C9F669817A818B819C810E945E02D101DA
:10157000DC969C938E93DB975F962D913C91909790
:10158000820F931FDE969C938E93DD976D817E81F3
:101590008F8198850E945E02F101FF96918380837E
:1015A00069857A858B859C850E945E02F101EF5BDF
:1015B000FF4F918380833296D10191962D913C917A
:1015C0009297820F931F918380836D857E858F858F
:1015D00098890E945E02F101EB5BFF4F918380834B
:1015E0003296D10193962D913C919497820F931F3F
:1015F0009183808369897A898B899C890E945E02A4
:10160000F101E75BFF4F918380836D897E898F892C
:10161000988D0E945E02F101E55BFF4F918380830C
:101620003296D10195962D913C919697820F931FFA
:1016300091838083698D7A8D8B8D9C8D0E945E0253
:10164000F101E15BFF4F918380833296D101979640
:101650002D913C919897820F931F91838083E09600
:101660000FB6F894DEBF0FBECDBFDF91CF911F91B3
:101670000F91FF90EF90DF90CF90BF90AF909F9031
:101680008F907F906F905F904F903F902F90089534
:101690002DA53EA54FA558A9C501B4010E948212EF
:1016A00069837A838B839C8395CEA30192016BA17E
:1016B0007CA18DA19EA10E948312698F7A8F8B8F4E
:1016C0009C8FD5CEA50194016BA17CA18DA19EA17B
:1016D0000E9483126D8B7E8B8F8B988F18CF2F92E9
:1016E0003F924F925F926F927F928F929F92AF92B2
:1016F000BF92CF92DF92EF92FF920F931F93CF93FF
:10170000DF938C01EB011A01633071051CF4015069
:1017100011092C96B801012E000C880B990B0E9420
:10172000301420E030E048EC52E40E9486130E941E
:101730006B146B017C0120E030E040E85EE30E9426
:10174000DF150E946B144B015C01B80164597D4E9A
:10175000072E000C880B990B0E94301420E030EA11
:1017600046EB53E40E94DF150E946B142B013C01F1
:101770002196BE01DD0F880B990B0E94301421E0E9
:101780003DEC44EF51E40E94DF150E946B149B0175
:10179000AC01C301B2010E9483122B013C01B101D3
:1017A000330C880B990B0E9430149B01AC01C301D0
:1017B000B2010E9483122B013C01A701960160E057
:1017C00070E080E090E40E948212A50194010E94E2
:1017D00083129B01AC01C301B2010E94831220E07D
:1017E00030E94EEB54E40E948212DF91CF911F91B9
:1017F0000F91FF90EF90DF90CF90BF90AF909F90B0
:101800008F907F906F905F904F903F902F900895B2
:101810005F926F927F928F929F92AF92BF92CF9280
:10182000DF92EF92FF920F931F93CF93DF930E946B
:101830009607E091F002F091F102E55AFF4F8081A6
:101840009181892B49F50E9408077C010E940007BD
:101850008C010E94F606C091F002D091F102A7011E
:10186000B8010E946F0B6B017C0120E030E044EB7B
:1018700053E469857A858B859C850E9486139B013C
:10188000AC01C701B6010E9482126FAB78AF89AF7D
:101890009AAFCE010E94BD078091F0029091F102B3
:1018A000FC01E55AFF4F20813181C7EED1E0E0E035
:1018B000DC01AE0FB11DAE0FB11DDB964D915C91F9
:1018C000DC974217530724F4E991EC3088F3E0E009
:1018D000E093D102F0E0E15FFD4F80818093D00280
:1018E0006BE472E086EF92E00E94AC10E091F002AF
:1018F000F091F102E55AFF4F808191816CE370E035
:101900000E94DB16EB017C016C30710524F02C97F2
:1019100001E010E002C000E010E0CA30D1052CF474
:1019200060E386EF92E00E941210BE0186EF92E023
:101930000E942E106AE386EF92E00E9412108AE065
:10194000E816F1042CF460E386EF92E00E94121096
:10195000B70186EF92E00E942E10012B19F468E483
:1019600072E002C065E472E086EF92E00E94AC1083
:1019700062E672E086EF92E00E94AC100E94F606EA
:10198000BC0186EF92E00E942E1062E572E086EFC5
:1019900092E00E94AC100E940007BC0186EF92E02A
:1019A0000E942E1062E572E086EF92E00E94AC1079
:1019B0000E940807BC0186EF92E00E942E106AE0A8
:1019C00086EF92E00E94121064E572E086EF92E0EA
:1019D0000E941910E1E08091A6038111E0E0E195F9
:1019E000F0E0ED56FC4F848980680E946A0FE09118
:1019F000F002F091F102E55AFF4F808191816CE392
:101A000070E00E94DB16EB017C016C30710524F064
:101A10002C9701E010E002C000E010E0CA30D105D0
:101A20002CF460E383E993E00E941210BE0183E985
:101A300093E00E942E106AE383E993E00E94121063
:101A4000EAE0EE16F1042CF460E383E993E00E94EF
:101A50001210B70183E993E00E942E10012B19F4B4
:101A600068E472E002C065E472E083E993E00E94FA
:101A7000AC1060E283E993E00E9412105AE0E52E78
:101A800052E0F52E512C0CE310E0C52DD0E0CC0F28
:101A9000DD1FFE01EF50FE4F80809180B40186EF84
:101AA00092E00E94AC106FE472E086EF92E00E9438
:101AB000AC10E091F002F091F102EC0FFD1F83AD4C
:101AC00094ADB8010E94DB163B015C016C307105DE
:101AD0003CF08CE0681A7108CC24C394D12C02C06D
:101AE000C12CD12CEAE06E1671042CF460E386EF71
:101AF00092E00E941210B30186EF92E00E942E1035
:101B00006AE386EF92E00E941210FAE0AF16B10489
:101B10002CF460E386EF92E00E941210B50186EF8C
:101B200092E00E942E10CD2819F468E472E002C001
:101B300065E472E086EF92E00E94AC1064E572E02A
:101B400086EF92E00E9419108091D0028515F1F085
:101B5000F70151907F01F0E1EF16F2E0FF0609F086
:101B600094CF64E572E086EF92E0DF91CF911F9110
:101B70000F91FF90EF90DF90CF90BF90AF909F902C
:101B80008F907F906F905F900C941910F40160819A
:101B900083E993E00E9412108091F0029091F1028B
:101BA000C80FD91F8BAD9CADB8010E94DB16EB01AD
:101BB0005C016C3071052CF02C97CC24C394D12C93
:101BC00002C0C12CD12CCA30D1052CF460E383E9CA
:101BD00093E00E941210BE0183E993E00E942E1050
:101BE0006AE383E993E00E941210FAE0AF16B104B1
:101BF0002CF460E383E993E00E941210B50183E9BD
:101C000093E00E942E10CD2819F468E472E002C01F
:101C100065E472E083E993E00E94AC10E091A603D2
:101C2000E23010F4E15001C0E1E0F0E0ED56FC4F8D
:101C3000848980680E946A0F8091D102E091F0024D
:101C4000F091F102DF01A55ABF4F4D915C91682FD1
:101C500070E09B01220F331FE20FF31F23AD34AD61
:101C6000E901C41BD50B21F4EB01C85FD84F1AC0A2
:101C7000D7FF0CC0882321F0D195C195D10906C0AA
:101C8000E901C056DA4FC41BD50B0CC0982F977FC3
:101C9000913031F0982F9D7F943011F08B3011F4FA
:101CA000CC5BD84FCE0188509740CC9710F5CE0131
:101CB000B8010E94DB16FC01EE0FFF1FEF50FE4F34
:101CC000C081D181BE0186EF92E00E94AC10BE01BE
:101CD00083E993E00E94AC1067E572E086EF92E042
:101CE0000E94AC1067E572E083E993E00E94AC10BB
:101CF0008CC0CE0184549740CC97B0F56DE572E06E
:101D000086EF92E00E94AC106DE572E083E993E00B
:101D10000E94AC10CE01B8010E94DB16EC0160E31A
:101D200086EF92E00E94121060E070E086EF92E091
:101D30000E942E106AE386EF92E00E941210CA30D1
:101D4000D1052CF460E386EF92E00E941210BE01F0
:101D500086EF92E00E942E1060E383E993E00E94F8
:101D6000121060E070E03BC064E672E086EF92E043
:101D70000E94AC1064E672E083E993E00E94AC102C
:101D8000CE01B8010E94DB166B01EC016A307105CF
:101D90002CF460E386EF92E00E941210B60186EF09
:101DA00092E00E942E106AE386EF92E00E941210E9
:101DB000CA30D1052CF460E386EF92E00E94121045
:101DC000BE0186EF92E00E942E10EAE0CE16D1040A
:101DD0002CF460E383E993E00E941210B60183E9DA
:101DE00093E00E942E106AE383E993E00E941210B0
:101DF000CA30D1052CF460E383E993E00E9412100D
:101E0000BE0183E993E00E942E1064E572E086EF44
:101E100092E00E941910C0E1D0E060E283E993E013
:101E20000E9412102197C9F793CE90E0FC01E25B6B
:101E3000FE4F2491FC01E65CFE4F8491882399F0CB
:101E400090E0880F991FFC01E05DFE4FA591B491D1
:101E5000FC01EA5DFE4F859194918FB7F894EC9167
:101E6000E22BEC938FBF0895CF92DF92EF92FF9217
:101E70000F931F93CF93DF936C017A018B01C0E026
:101E8000D0E0CE15DF0581F0D8016D918D01D6012E
:101E9000ED91FC910190F081E02DC6010995892B0F
:101EA00011F02196EECF7E01C701DF91CF911F91F6
:101EB0000F91FF90EF90DF90CF90089586EF92E022
:101EC0000E940D0121E0892B09F420E0822F089562
:101ED0000E944C1840E0682F83E993E00C943D0782
:101EE000CF93DF93823028F09091A2039860909373
:101EF000A2038093A6031092A70380E48093A80313
:101F000080E18093A90380E58093AA0380919703E1
:101F10000E94150F809198038F3F11F00E94150FBA
:101F2000809199030E94150FC3E9D3E09E012359C4
:101F300033408091A20384FD03C084E090E002C09E
:101F400088E090E021962817390724F48E810E94BA
:101F5000150FECCF8BE39DE00197F1F760E08091E6
:101F600097030E94CC0560E0809199030E94CC0504
:101F7000809198038F3F19F060E00E94CC0580911A
:101F8000A20384FD20C063E083E993E00E94100770
:101F9000CBE4D6E4CE010197F1F763E083E993E067
:101FA0000E9410072197F1F763E083E993E00E9414
:101FB000100783E592E00197F1F762E083E993E08F
:101FC0000E94100715C080620E946A0F8BE496E49D
:101FD0000197F1F78091A20380620E946A0F83E566
:101FE00092E00197F1F78091A20380620E946A0F4C
:101FF0008091A20380620E946A0F84E08093A30311
:102000008CE00E946A0F81E00E946A0F8BE39FE1DF
:102010000197F1F782E08093A40386E0DF91CF91EE
:102020000C946A0FDC01ED91FC910190F081E02DA0
:1020300009946115710579F0FB0101900020E9F721
:102040003197AF01461B570BDC01ED91FC910280EB
:10205000F381E02D099480E090E008954F925F9223
:102060006F927F928F929F92AF92BF92CF92DF92A8
:10207000EF92FF920F931F93CF93DF93CDB7DEB70D
:10208000A1970FB6F894DEBF0FBECDBF8C016B01D8
:10209000770FEE08FF08F7FE2AC06DE20E941210CB
:1020A0005C0122273327A9012C193D094E095F093C
:1020B00019A2CE0181967C019AE0492E512C612C07
:1020C000712CCA01B901A30192010E94EF16605D53
:1020D000F70162937F01211531054105510589F70B
:1020E000BF01C8010E9419108A0D9B1D1EC0A701C7
:1020F000960119A2CE0181967C018AE0882E912C4E
:10210000A12CB12CCA01B901A50194010E94EF16BE
:10211000605DF70162937F0121153105410551058D
:1021200089F7BF01C8010E941910A1960FB6F89453
:10213000DEBF0FBECDBFDF91CF911F910F91FF90FA
:10214000EF90DF90CF90BF90AF909F908F907F9057
:102150006F905F904F9008950C9419101F920F92FA
:102160000FB60F9211242F933F934F935F936F936A
:102170007F938F939F93AF93BF93EF93FF9386EFDC
:1021800092E00E943B05FF91EF91BF91AF919F912B
:102190008F917F916F915F914F913F912F910F9010
:1021A0000FBE0F901F901895E6EFF2E01382128297
:1021B00088EE93E0A0E0B0E084839583A683B783A4
:1021C0008BE292E09183808385EC90E09587848711
:1021D00084EC90E09787868780EC90E0918B808BF1
:1021E00081EC90E0938B828B82EC90E0958B848BDA
:1021F00086EC90E0978B868B118E128E138E148E48
:10220000E3E9F3E0138212828DE392E0918380830D
:102210008CE084838FEF85838BE0868385E08783E2
:1022200084E0808783E0818787E082871386148635
:1022300015861686178681E00C94700F789484B505
:10224000826084BD84B5816084BD85B5826085BDB2
:1022500085B5816085BD80916E00816080936E0040
:102260001092810080918100826080938100809132
:1022700081008160809381008091800081608093E3
:1022800080008091B10084608093B1008091B000A3
:1022900081608093B00080917A00846080937A009E
:1022A00080917A00826080937A0080917A008160C8
:1022B00080937A0080917A00806880937A001092EF
:1022C000C100E0910603F091070382E08083E09172
:1022D0000203F09103031082E0910403F0910503DF
:1022E0008FEC808310920E03E0910A03F0910B03B0
:1022F00086E08083E0910803F0910903808180618A
:102300008083E0910803F0910903808188608083D5
:10231000E0910803F0910903808180688083E09157
:102320000803F091090380818F7D808382E00E9401
:10233000700F8DE590E00E942B17FC018AE291E07E
:10234000918380831282138283E0848329E130E0C9
:1023500030A3278F84E190E092A381A334A323A329
:102360002AE030E036A325A390A787A3F093F102DB
:10237000E093F00281E38093EF0287E08093EE0226
:1023800086E18093ED028093EB0281E18093EA0283
:102390008CE38093E90222EB37E090E8C92E9BEDB5
:1023A000D92E9AE1E92E9CE5F92EE4E6F0E0C0E9A9
:1023B000D1E0C90183709927892B99F4C901BF0124
:1023C0000E94DB16892B31F4C901BE010E94DB1685
:1023D000892B39F480E8C80E81E5D81E81E0E81E1B
:1023E000F11C2F5F3F4F233E87E0380711F7C701ED
:1023F000B60168567747844F9E4F0E9479060E9427
:102400009607E091F002F091F10284E591E091836A
:102410008083128283E08483128A118A148A138A49
:10242000168A158A108E178A128E118E148E138EAC
:10243000168E158E0E9496070E9408076C010E9456
:1024400000077C010E94F606C091F002D091F102D3
:1024500046ED51E56AEC71E44D835E836F837887C6
:102460004AE65DEF6DE472E449875A876B877C87A3
:1024700040E050E060E470E44D875E876F87788BC2
:10248000A601B7010E946F0B21E53BE742E15EE345
:102490000E9482126FAB78AF89AF9AAFCE010E94D3
:1024A000BD070E94080C80E6C82E8AEED82EE12CCB
:1024B000F12C2FB7F8946091F2027091F3028091A1
:1024C000F4029091F5022FBFA70196010E94EF162A
:1024D000672B682B692B11F40E94080C0E941901CC
:1024E000E8CF9F939F770E9482140F90002042F4C0
:1024F0009058A2EA2AED3FE049E450E40E949A1283
:102500000C946C155058BB27AA270E949A120C9461
:102510006C150E94331538F00E943A1520F039F4FA
:102520009F3F19F426F40C94F5140EF4E095E7FBA4
:102530000C94C614E92F0E94911558F3BA1762073C
:1025400073078407950720F079F4A6F50C94CB1552
:102550000EF4E0950B2EBA2FA02D0B01B9019001BE
:102560000C01CA01A0011124FF27591B99F0593F02
:1025700050F4503E68F11A16F040A22F232F342F4A
:102580004427585FF3CF469537952795A795F04098
:102590005395C9F77EF41F16BA0B620B730B840BAD
:1025A000BAF09150A1F0FF0FBB1F661F771F881F65
:1025B000C2F70EC0BA0F621F731F841F48F48795BD
:1025C00077956795B795F7959E3F08F0B0CF9395AF
:1025D000880F08F09927EE0F9795879508959F9398
:1025E0009F77EEE389379E0728F4E8E6F0E00E9443
:1025F0001F150CC00E9482149058A2EA2AED3FE0F9
:1026000049EC5FE30E949A120E946C150F9007FC40
:10261000905808950E94331560F080E891E009F425
:102620009EEF0E943A1528F040E851E071F45EEF09
:102630000CC00C94F5140C94CB15E92FE0780E9493
:10264000911540F3092E052AB1F3261737074807DD
:10265000590738F00E2E07F8E02569F0E025E06410
:102660000AC0EF6307F8009407FADB01B9019D0186
:10267000DC01CA01AD01EF930E949D130E946C150D
:102680000E944D135F91552339F02BED3FE049E453
:1026900050FD49EC0C9483120895DF93DD27B92F88
:1026A000BF7740E85FE31616170648075B0718F484
:1026B000D92F0E94D7159F938F937F936F930E947A
:1026C0009A16ECE7F0E00E94F8140E946C152F9126
:1026D0003F914F915F910E94F215DD2351F0905888
:1026E000A2EA2AED3FE049EC5FE3D0785D270E9443
:1026F0009A12DF910C946C150E94A21408F481E0E8
:1027000008950E944315E3950C947D150E949A1339
:102710000C946C150E943A1558F00E94331540F045
:1027200029F45F3F29F00C94C61451110C94CC1578
:102730000C94F5140E94911568F39923B1F3552375
:1027400091F3951B550BBB27AA27621773078407C4
:1027500038F09F5F5F4F220F331F441FAA1FA9F35A
:1027600035D00E2E3AF0E0E832D091505040E69548
:10277000001CCAF72BD0FE2F29D0660F771F881FA9
:10278000BB1F261737074807AB07B0E809F0BB0B9C
:10279000802DBF01FF2793585F4F3AF09E3F5105B0
:1027A00078F00C94C6140C94CC155F3FE4F3983E7B
:1027B000D4F3869577956795B795F7959F5FC9F799
:1027C000880F911D9695879597F90895E1E0660F1A
:1027D000771F881FBB1F621773078407BA0720F093
:1027E000621B730B840BBA0BEE1F88F7E0950895FC
:1027F0000E94FF136894B1110C94CC1508950E94A7
:10280000991588F09F5798F0B92F9927B751B0F0D4
:10281000E1F0660F771F881F991F1AF0BA95C9F764
:1028200014C0B13091F00E94CB15B1E008950C9422
:10283000CB15672F782F8827B85F39F0B93FCCF3D5
:10284000869577956795B395D9F73EF490958095E1
:10285000709561957F4F8F4F9F4F0895E89409C001
:1028600097FB3EF490958095709561957F4F8F4FC3
:102870009F4F9923A9F0F92F96E9BB279395F695D9
:10288000879577956795B795F111F8CFFAF4BB0F57
:1028900011F460FF1BC06F5F7F4F8F4F9F4F16C0BB
:1028A000882311F096E911C0772321F09EE8872F45
:1028B000762F05C0662371F096E8862F70E060E001
:1028C0002AF09A95660F771F881FDAF7880F96957A
:1028D000879597F908950E94B31590F09F3748F4B3
:1028E000911116F00C94CC1560E070E080E89FEB3D
:1028F000089526F41B16611D711D811D0C94CC14C6
:102900000C94E714DF93CF931F930F938B01EC018B
:10291000E9EAF0E00E94F8140E946C159801AE01FB
:102920008B01EC0160E070E080E89FE30E9482127E
:102930000E945A169801AE010F911F91CF91DF911D
:102940000C94F215990F0008550FAA0BE0E8FEEF62
:1029500016161706E807F907C0F012161306E40763
:10296000F50798F0621B730B840B950B39F40A265C
:1029700061F0232B242B252B21F408950A2609F43A
:10298000A140A6958FEF811D811D089597F99F673E
:1029900080E870E060E00895882371F4772321F0E7
:1029A0009850872B762F07C0662311F499270DC006
:1029B0009051862B70E060E02AF09A95660F771FA1
:1029C000881FDAF7880F9695879597F908959F3FA6
:1029D00031F0915020F4879577956795B795880FDA
:1029E000911D9695879597F908959FEF80EC08952E
:1029F000DF93CF931F930F93FF92EF92DF927B01B0
:102A00008C01689406C0DA2EEF010E94F215FE01D7
:102A1000E894A5912591359145915591A6F3EF0143
:102A20000E949A12FE019701A801DA9469F7DF90DB
:102A3000EF90FF900F911F91CF91DF9108959F9399
:102A40008F937F936F93FF93EF939B01AC010E9451
:102A5000DF15EF91FF910E94F8142F913F914F9154
:102A60005F910C94DF1500240A94161617061806B9
:102A70000906089500240A94121613061406050682
:102A800008950C94F5140E949915D8F3E894E0E0A9
:102A9000BB279F57F0F02AED3FE049EC06C0EE0F50
:102AA000BB0F661F771F881F28F0B23A62077307B3
:102AB000840728F0B25A620B730B840BE3959A9546
:102AC00072F7803830F49A95BB0F661F771F881F06
:102AD000D2F790480C94E914092E0394000C11F4D9
:102AE000882352F0BB0F40F4BF2B11F460FF04C0E9
:102AF0006F5F7F4F8F4F9F4F0895EF93E0FF07C0A9
:102B0000A2EA2AED3FE049EC5FEB0E949A120E9494
:102B10006C150F90039401FC9058E1EDF0E00C94DB
:102B20001F1557FD9058440F551F59F05F3F71F026
:102B30004795880F97FB991F61F09F3F79F0879524
:102B40000895121613061406551FF2CF4695F1DFAD
:102B500008C0161617061806991FF1CF869571053D
:102B60006105089408950E949915A0F0BEE7B91771
:102B700088F4BB279F3860F41616B11D672F782F95
:102B80008827985FF7CF869577956795B11D9395C0
:102B90009639C8F30895E894BB2766277727CB01B9
:102BA00097F908950E94A21408F48FEF08959B01ED
:102BB000AC0160E070E080E89FE30C9486130E9413
:102BC000F2150C946C150E94331538F00E943A15DA
:102BD00020F0952311F00C94C6140C94F5141124D4
:102BE0000C94CC150E94911570F3959FC1F3950F2D
:102BF00050E0551F629FF001729FBB27F00DB11D81
:102C0000639FAA27F00DB11DAA1F649F6627B00D10
:102C1000A11D661F829F2227B00DA11D621F739FF9
:102C2000B00DA11D621F839FA00D611D221F749F07
:102C30003327A00D611D231F849F600D211D822F4E
:102C4000762F6A2F11249F5750409AF0F1F0882375
:102C50004AF0EE0FFF1FBB1F661F771F881F9150A2
:102C60005040A9F79E3F510580F00C94C6140C9477
:102C7000CC155F3FE4F3983ED4F38695779567953E
:102C8000B795F795E7959F5FC1F7FE2B880F911DCC
:102C90009695879597F908959F930E9443150F90F5
:102CA00007FCEE5F0C947D1519F416F40C94F514E2
:102CB0000C94E7140E949915B8F39923C9F3B6F35D
:102CC0009F57550B87FF0E94C8160024A0E640EAD4
:102CD000900180585695979528F4805C660F771F71
:102CE000881F20F026173707480730F4621B730B44
:102CF000840B202931294A2BA69517940794202567
:102D000031254A2758F7660F771F881F20F02617AE
:102D10003707480730F4620B730B840B200D311D0D
:102D2000411DA09581F7B901842F9158880F969580
:102D3000879508959B01AC010C94DF15DF93D92F83
:102D40000E944315E695D7952AED3FE049E45FE3FD
:102D5000B33A6207730784079507D7953AF0A2EA5A
:102D600049EC90680E949A120E946C15EFEEF0E018
:102D70000E941F15DD0F13F00E94D715DD0F0BF415
:102D80009058DF9108950E94A214880B990B089522
:102D900091505040660F771F881FD2F70895991BF6
:102DA00079E004C0991F961708F0961B881F7A9542
:102DB000C9F78095089597FB072E16F4009407D065
:102DC00077FD09D00E94111707FC05D03EF49095BD
:102DD00081959F4F0895709561957F4F0895A1E269
:102DE0001A2EAA1BBB1BFD010DC0AA1FBB1FEE1F85
:102DF000FF1FA217B307E407F50720F0A21BB30BD0
:102E0000E40BF50B661F771F881F991F1A9469F74B
:102E100060957095809590959B01AC01BD01CF01A7
:102E20000895AA1BBB1B51E107C0AA1FBB1FA61711
:102E3000B70710F0A61BB70B881F991F5A95A9F763
:102E400080959095BC01CD010895EE0FFF1F059070
:102E5000F491E02D09940F931F93CF93DF93823069
:102E6000910510F482E090E0E091AD03F091AE03A3
:102E700020E030E0A0E0B0E0309719F140815181CE
:102E80000281138148175907C8F08417950769F420
:102E9000109731F012960C93129713961C9327C03B
:102EA0000093AD031093AE0322C02115310519F034
:102EB0004217530718F49A01BD01EF01DF01F80131
:102EC000DBCF21153105F9F0281B390B24303105F2
:102ED00080F48A819B816115710521F0FB01938348
:102EE000828304C09093AE038093AD03FE013296BB
:102EF00044C0FE01E20FF31F8193919322503109E8
:102F0000398328833AC02091AB033091AC03232B43
:102F100041F42091C6013091C7013093AC03209356
:102F2000AB032091C4013091C5012115310541F455
:102F30002DB73EB74091C8015091C901241B350BF4
:102F4000E091AB03F091AC03E217F307A0F42E1B62
:102F50003F0B2817390778F0AC014E5F5F4F2417FD
:102F6000350748F04E0F5F1F5093AC034093AB03FF
:102F70008193919302C0E0E0F0E0CF01DF91CF9127
:102F80001F910F910895CF93DF93009709F481C0AB
:102F9000FC01329713821282A091AD03B091AE036F
:102FA000109781F420813181820F931F2091AB0310
:102FB0003091AC032817390751F5F093AC03E09337
:102FC000AB0367C0ED0120E030E0CE17DF0740F42F
:102FD0004A815B819E0141155105F1F0EA01F5CF6F
:102FE000D383C28340815181840F951FC817D907AD
:102FF00059F488819981840F951F0296918380836B
:103000008A819B81938382832115310529F4F09372
:10301000AE03E093AD033DC0E901FB83EA83499130
:103020005991C40FD51FEC17FD0761F48081918180
:10303000840F951F0296E901998388838281938189
:103040009B838A83E0E0F0E012968D919C91139728
:10305000009719F0FD01DC01F7CF8D919C9111973C
:103060009D012E5F3F4F820F931F2091AB03309144
:10307000AC032817390769F4309729F41092AE038E
:103080001092AD0302C013821282B093AC03A093DE
:10309000AB03DF91CF91089581E090E0F8940C9418
:0630A0005118F894FFCF67
:1030A6000000904101000000000000009041000077
:1030B60070410100000000000000704100009041D6
:1030C600010000000000000088410000944101005A
:1030D600000000010000B44200009C410100000015
:1030E600000000008C41000090410100000000003B
:1030F600000088410000904101000000000100002E
:10310600B4420000904101000040400000008841A8
:103116000000904101000000000000009041000006
:10312600904101000000000000008C410000904129
:1031360001000000000000008841000090410100ED
:1031460000000000000088410000904101000000DE
:1031560000000000884100009041010000000000CE
:10316600000088410000AF0380000000A04000007E
:10317600C040000040410000504100009041000066
:103186009041000090410001020304050608090A67
:103196000B6F0274027F0287028C0297029B02A5C4
:1031A60002AC02B302C002C50200020305080A000F
:1031B6000002030305050808080A0A1F1C1F1E1F34
:1031C6001E1F1F1E1F1E1F000000005D05340FDCA2
:1031D60000AA050D01EB00FF000000000090073477
:1031E6000F27022602504D00414D0054494D450916
:1031F60009002D000D0A002054494D450049514152
:103206004D41200052454D41494E494E472000460A
:10321600414A520046414A525F4951414D4100538D
:10322600554E52495345004455485200445548525C
:103236005F4951414D4100415352004153525F494C
:1032460051414D410053554E534554004D4147524F
:103256004942004D41475249425F4951414D410063
:103266004953484100495348415F4951414D410046
:00000001FF
