:100000000C94B2000C94DA000C94DA000C94DA0030
:100010000C94DA000C94DA000C94DA000C94DA00F8
:100020000C94DA000C94DA000C94DA000C94DA00E8
:100030000C94DA000C94DA000C94DA000C94DA00D8
:100040000C948B040C94DA000C94160F0C94F00EA4
:100050000C94DA000C94DA000C94DA000C94DA00B8
:100060000C94DA000C94DA00036EDB363D9A999911
:10007000993DABAAAA2A3E000000803F084AD73B20
:100080003BCE016E84BCBFFDC12F3D6C74319ABD67
:1000900056833DDA3D00C77F11BED9E4BB4C3E918B
:1000A0006BAAAABE000000803F072C7AA5BA6CC5D7
:1000B00090DA3B9365FC8BBC53F810FD3C56928361
:1000C0004DBD879D3AB63DCBC9BF5BBE73DA0FC944
:1000D0003F05A84CCDB2D44EB93836A9020C50B960
:1000E000918688083CA6AAAA2ABE000000803F0686
:1000F00064EC1B3C04BC163E3BE5B93CC93C37C232
:100100009E5A3D660498083EEA69AAAA3E0000008D
:10011000803F000000080002010000030407000007
:1001200000000000000000000000250028002B0057
:1001300000000000240027002A0004040404040432
:100140000404020202020202030303030303010286
:100150000408102040800102040810200102040855
:100160001020480F11241FBECFEFD8E0DEBFCDBF57
:1001700012E0A0E0B1E0E8E2FDE202C005900D92DD
:10018000A23CB107D9F723E0A2ECB2E001C01D9276
:10019000A439B207E1F710E0C2EBD0E004C0219728
:1001A000FE010E946615C13BD107C9F70E94920F5C
:1001B0000C9492160C940000FC01538D448D252F55
:1001C00030E0842F90E0821B930B541710F0CF96F1
:1001D000089501970895FC01918D828D981761F023
:1001E000828DDF01A80FB11D5D968C91928D9F5F6E
:1001F0009F73928F90E008958FEF9FEF0895FC0119
:10020000918D828D981731F0828DE80FF11D858DCB
:1002100090E008958FEF9FEF0895FC01918D228D5E
:10022000892F90E0805C9F4F821B91098F739927E3
:10023000089580E090E0892B29F00E94310D811112
:100240000C9400000895089580E090E00895CF9206
:10025000DF92EF92FF926B017C0120E030E040ECF6
:1002600051E40E94C7110E94AC1220E030E040EC43
:1002700051E40E9420149B01AC01C701B6010E9409
:10028000C3106B017C0120E030E0A9010E94BD1188
:1002900087FF0AC020E030E040EC51E4C701B6011E
:1002A0000E94C4106B017C01C701B601FF90EF9062
:1002B000DF90CF9008958F929F92AF92BF92CF928E
:1002C000DF92EF92FF926B017C019B01AC010E94D7
:1002D0000415811132C029E838E848E05CE3C70121
:1002E000B6010E94C4100E9427014B015C010E94CC
:1002F000AC120E9439126B017C01072E000C880B96
:10030000990B0E9471129B01AC01C501B4010E94BE
:10031000C31020E030E040E752E40E9420140E9425
:10032000AC120E9439124CE34C9D90014D9D300D52
:100330001124C901860F971F02C08FEF9FEFFF9016
:10034000EF90DF90CF90BF90AF909F908F900895E7
:10035000CF92DF92EF92FF926B017C0120E030E0C0
:1003600044EB53E40E94C7110E94AC1220E030E03D
:1003700044EB53E40E9420149B01AC01C701B60179
:100380000E94C3106B017C0120E030E0A9010E94B3
:10039000BD1187FF0AC020E030E044EB53E4C70101
:1003A000B6010E94C4106B017C01C701B601FF9029
:1003B000EF90DF90CF9008952BED3FE049E450E4BB
:1003C0000E94201420E030E044E353E40E94C7116F
:1003D0000C948D144F925F926F927F928F929F92A6
:1003E000AF92BF92CF92DF92EF92FF92CF93DF93C3
:1003F000CDB7DEB72A970FB6F894DEBF0FBECDBFDC
:100400009A878987CB01BA0124E631EA45E15AE4AB
:100410000E94C3106B017C012DE430E54CE75FE3E3
:100420000E94201426EB33EC42EB53E40E94C410EC
:100430000E94A8014B015C0123E633E54CE75FE332
:10044000C701B6010E94201421EC3AE34CE853E4C2
:100450000E94C4100E94A8016D837E838F839887B9
:10046000C501B4010E94DC0128EB3EE145EF5FE3EA
:100470000E9420142D813E814F8158850E94C41016
:100480002B013C01A5019401C501B4010E94C410D7
:100490000E94DC012AE037ED43EA5CE30E9420146D
:1004A000A30192010E94C4100E94A8012B013C01EB
:1004B00026E036E441EC54E3C701B6010E94201463
:1004C0009B01AC0162E173E88BEB91E40E94C310E5
:1004D0004B015C010E94DC0169837A838B839C83DE
:1004E000C301B2010E94DC016B017C019B01AC01E4
:1004F00069817A818B819C810E9420140E94301135
:1005000069837A838B839C832BED3FE049E450E43D
:10051000C301B2010E94201420E030E044E353E420
:100520000E94C7110E94C2112B013C012BED3FE03C
:1005300049E450E4C501B4010E94201420E030E0F9
:1005400044E353E40E94C7110E94C2119B01AC0115
:10055000C701B6010E942014A30192010E945E11FE
:1005600020E030E044E353E40E9420142BED3FE010
:1005700049E450E40E94C71120E030E040E751E434
:100580000E94C7110E9427016B017C01A984BA84D3
:1005900083E5A80EB11C20E030E040E751E46D8116
:1005A0007E818F8198850E94C711A70196010E94C4
:1005B000C310F501608371838283938389859A8553
:1005C000895A9F4F9E838D8320E030E044E353E4BB
:1005D00069817A818B819C810E9420142BED3FE000
:1005E00049E450E40E94C711ED81FE81608371836C
:1005F000828393832A960FB6F894DEBF0FBECDBFD9
:10060000DF91CF91FF90EF90DF90CF90BF90AF90B0
:100610009F908F907F906F905F904F9008954F9232
:100620005F926F927F928F929F92AF92BF92CF9282
:10063000DF92EF92FF920F931F93CF93DF93CDB78B
:10064000DEB764970FB6F894DEBF0FBECDBF9A87B2
:1006500089872A013B01C901B801E985FA8527A9E3
:1006600030AD41AD52AD0E94C410AB01BC018985D3
:100670009A850E94EA01E985FA85E95AFF4F808050
:100680009180A280B380E985FA85ED5AFF4F2081E1
:1006900031814281538160E070E080E491E40E9406
:1006A000C3100E942701698B7A8B8B8B9C8BC301B3
:1006B000B2010E94DC0169837A838B839C83C5012C
:1006C000B4010E94DC016D837E838F839887E98566
:1006D000FA85C580D680E780F084C701B6010E9404
:1006E000DC0169877A878B879C872BED3FE049E4A3
:1006F00050E4C501B4010E94201420E030E044E33E
:1007000053E40E94C7110E94C2116D877E878F87B4
:10071000988B2BED3FE049E450E4C701B6010E94FD
:10072000201420E030E044E353E40E94C7110E940B
:10073000C2114B015C01C980DA80EB80FC80F7FAC2
:10074000F094F7F8F09429853A854B855C856D81A6
:100750007E818F8198850E9420149B01AC01C70186
:10076000B6010E94C3106B017C012D853E854F852B
:100770005889C501B4010E9420149B01AC01C70136
:10078000B6010E94C7110E94B21020E030E044E39D
:1007900053E40E9420142BED3FE049E450E40E9412
:1007A000C71120E030E040E751E40E94C7116B011F
:1007B0007C0120E030E044EB52E4C301B2010E942E
:1007C0001314181624F4C701B601905802C0C701CB
:1007D000B60129893A894B895C890E94C4106496C4
:1007E0000FB6F894DEBF0FBECDBFDF91CF911F9142
:1007F0000F91FF90EF90DF90CF90BF90AF909F90C0
:100800008F907F906F905F904F900895FC01848D42
:10081000DF01A80FB11DA35ABF4F2C91848D90E02A
:1008200001968F739927848FA689B7892C93A08905
:10083000B1898C91837080648C93938D848D98138F
:1008400006C00288F389E02D80818F7D8083089522
:1008500090E0FC01EE5EFE4F2491FC01E25BFE4F56
:100860003491FC01E65CFE4FE491EE2309F43CC0B8
:10087000222339F1233091F038F42130A9F02230CD
:1008800001F584B58F7D12C0273091F02830A1F09A
:100890002430B9F4809180008F7D03C08091800066
:1008A0008F77809380000DC084B58F7784BD09C099
:1008B0008091B0008F7703C08091B0008F7D8093CE
:1008C000B000F0E0EE0FFF1FEA5DFE4FA591B4917E
:1008D0009FB7F894611104C08C913095382302C001
:1008E000EC913E2B3C939FBF0895CF93DF93EC0197
:1008F00060E08E810E94280461E08E810E942804BD
:1009000060E08E810E9428048BE891E00197F1F766
:10091000DF91CF9108951F920F920FB60F9211247D
:100920002F933F938F939F93AF93BF938091D70261
:100930009091D802A091D902B091DA023091C80208
:1009400023E0230F2D3720F40196A11DB11D05C012
:1009500026E8230F0296A11DB11D2093C8028093A3
:10096000D7029093D802A093D902B093DA02809173
:10097000C4029091C502A091C602B091C70201962F
:10098000A11DB11D8093C4029093C502A093C6021D
:10099000B093C702BF91AF919F918F913F912F91DB
:1009A0000F900FBE0F901F901895CF92DF92EF928D
:1009B000FF920F931F93CF93DF936C017C0187E02D
:1009C000E80EF11CC0E0D0E0062F10E0B8010C2EBC
:1009D00002C0759567950A94E2F76170F7018191FD
:1009E0007F010E9428042196C430D10579F7C60101
:1009F000DF91CF911F910F91FF90EF90DF90CF90FB
:100A00000C947504CF92DF92EF92FF920F931F9395
:100A1000CF93DF93EC01F62E642F8C810E94280483
:100A20008D818F3F19F060E00E9428048F850F2D83
:100A300010E084FF25C06E0187E0C80ED11CE12CB8
:100A4000F12CB8010E2C02C0759567950A94E2F757
:100A50006170F60181916F010E942804FFEFEF1A87
:100A6000FF0A88E0E816F10461F7CE01DF91CF912B
:100A70001F910F91FF90EF90DF90CF900C94750431
:100A8000B80184E0759567958A95E1F7CE010E94DB
:100A9000D5046F2DCE01DF91CF911F910F91FF9063
:100AA000EF90DF90CF900C94D50441E00E940205B6
:100AB00081E090E00895E091D502F091D602E55AE8
:100AC000FF4F808191816CE370E00E941C15709350
:100AD000CE026093CD022FB7F8946091D702709147
:100AE000D8028091D9029091DA022FBF20E63AEE27
:100AF00040E050E00E9430158091CB029091CC02F2
:100B0000280F391F2C33310529F03093CA02209366
:100B1000C90215C01092CA021092C9028091CD027A
:100B20009091CE0201968931910529F09093CE02E1
:100B30008093CD0204C01092CE021092CD02E091BB
:100B4000D502F091D602E55AFF4F8091CD029091E7
:100B5000CE024CE3489F9001499F300D11248091B3
:100B6000C9029091CA02820F931F918380830895D6
:100B70002F923F924F925F926F927F928F929F92AD
:100B8000AF92BF92CF92DF92EF92FF920F931F939B
:100B9000CF93DF93CDB7DEB7E0970FB6F894DEBF03
:100BA0000FBECDBF1C018CE1EAECF1E0DE01119635
:100BB00001900D928A95E1F79E012F5F3F4F38A774
:100BC0002FA3AE01435E5F4F5E8F4D8F890120E002
:100BD00030E040EC51E4D8016D917D918D919C9174
:100BE0000E94C711F80161937193819391938F01D2
:100BF0002D8D3E8DE217F30751F7C980DA80EB8027
:100C0000FC80D101ED91FC912081318142815381A1
:100C100060E070E084E393E40E94C310AB01BC0188
:100C200097018601C1010E940F036F8F78A389A3EA
:100C30009AA30D811E812F81388541EC5AE263E32E
:100C400073E4C1010E940F036BA37CA38DA39EA339
:100C500029853A854B855C85F10167A970AD81AD29
:100C600092AD0E94C410AB01BC01C1010E94EA0117
:100C7000F101ED5AFF4F208131814281538160E0C3
:100C800070E080E491E40E94C3100E94270169A7EC
:100C90007AA78BA79CA7CD84DE84EF84F888D10146
:100CA00012966C9170E06F5F7F4F072E000C880BDF
:100CB000990B0E9471124B015C01F10127A930AD23
:100CC00041AD52ADC701B6010E94C410AB01BC01D9
:100CD000C1010E94EA01F101E95AFF4F20813181EF
:100CE00042815381D10115966D917D918D919C9199
:100CF00018970E94C3109F772BED3FE049E450E422
:100D00000E94201420E030E044E353E40E94C71125
:100D10000E94DF149B01AC01C501B4010E94C41004
:100D20009B01AC0160E070E080E89FE30E945E11EF
:100D300020E030E044E353E40E9420142BED3FE038
:100D400049E450E40E94C711AB01BC0170589701FF
:100D50008601C1010E940F032B013C0109891A89F8
:100D60002B893C894DE75FE365E57FE3C1010E9484
:100D70000F034B015C010D891E892F89388DD1012C
:100D8000ED91FC914581568167817085C1010E947A
:100D90000F036B017C01098D1A8D2B8D3C8DD101C8
:100DA000ED91FC914285538564857585C1010E9452
:100DB0000F032F8D38A149A15AA129833A834B8370
:100DC0005C832BA13CA14DA15EA12D833E834F836B
:100DD000588729A53AA54BA55CA529873A874B8753
:100DE0005C874D865E866F86788A898A9A8AAB8A06
:100DF000BC8ACD8ADE8AEF8AF88E698F7A8F8B8FD4
:100E00009C8F20E030E040E751E4D10119966D91CC
:100E10007D918D919C911C970E94C7119B01AC0103
:100E2000F10165857685878590890E94C3106B01E5
:100E30007C018E010F5F1F4FA7019601D8016D91B4
:100E40007D918D919C910E94C410F80161937193E2
:100E5000819391938F012D8D3E8DE217F30761F7FA
:100E6000D10113968C916CE30E941015682F70E0ED
:100E700080E090E00E9471129B01AC0169857A8547
:100E80008B859C850E94C41069877A878B879C8795
:100E9000F1010190F081E02DF8A3EF8FF481F9A723
:100EA000FF23C1F020E030E040E752E4AF8DB8A16D
:100EB00015966D917D918D919C9118970E94C71107
:100EC00029893A894B895C890E94C4106D8B7E8B7D
:100ED0008F8B988FEF8DF8A101850023A1F020E082
:100EE00030E040E752E462857385848595850E94F1
:100EF000C7112D893E894F89588D0E94C410698F72
:100F00007A8F8B8F9C8FD10114961C91112309F439
:100F1000F9C08D809E80AF80B88429893A894B8939
:100F20005C892BA33CA34DA35EA3C501B4010E9421
:100F3000C3100E9427016B017C01AF8DB8A16D9198
:100F40007D918D919C91133049F420E030E040E791
:100F500052E40E94C7119B01AC0111C0113039F05D
:100F6000123051F424EE39E442E15EE308C020E09F
:100F700030E040E05FE303C020E030E0A901C701BA
:100F8000B6010E9420146DA77EA78FA798AB498059
:100F90005A806B807C80A3019201C301B2010E9440
:100FA0000415811170C1A3019201C501B4010E9411
:100FB000C3100E9427019B01AC016DA57EA58FA5E2
:100FC00098A90E94BD1187FD5EC1002339F0EF8D05
:100FD000F8A1628573858485958504C060E070E022
:100FE00080E991E4133049F420E030E040E752E436
:100FF0000E94C7119B01AC0111C0113039F01230B1
:1010000051F424EE39E442E15EE308C020E030E030
:1010100040E05FE303C020E030E0A901C701B60172
:101020000E9420142B013C01898C9A8CAB8CBC8CC7
:10103000A5019401C501B4010E940415811130C1BC
:101040002BA13CA14DA15EA1C501B4010E94C3101A
:101050000E9427019B01AC01C301B2010E94BD1196
:1010600087FD1EC1F9A5FF2349F0AF8DB8A11596E4
:101070006D917D918D919C91189704C060E070E016
:1010800080E890E4133049F420E030E040E752E497
:101090000E94C7119B01AC0111C0113039F0123010
:1010A00051F424EE39E442E15EE308C020E030E090
:1010B00040E05FE303C020E030E0A901C701B601D2
:1010C0000E9420144B015C01CD88DE88EF88F88CEB
:1010D000A7019601C701B6010E9404158111EDC058
:1010E0002BA13CA14DA15EA1C701B6010E94C31076
:1010F0000E9427019B01AC01C501B4010E94BD11F2
:1011000087FDDBC081010F5E1F4FF8016191719176
:101110008F01072E000C880B990B0E94711220E0A2
:1011200030E040E752E40E94C7119B01AC01AFA13F
:10113000B8A56D917D918D919C910E94C410EFA1F5
:10114000F8A56193719381939193F8A7EFA32D8DE7
:101150003E8D2E173F07C9F669817A818B819C816C
:101160000E945B01D101DC969C938E93DB975F9686
:101170002D913C919097820F931FDE969C938E93B6
:10118000DD976D817E818F8198850E945B01F101E1
:10119000FF969183808369857A858B859C850E94E3
:1011A0005B01F101EF5BFF4F918380833296D101A8
:1011B00091962D913C919297820F931F91838083FA
:1011C0006D857E858F8598890E945B01F101EB5BBF
:1011D000FF4F918380833296D10193962D913C915C
:1011E0009497820F931F9183808369897A898B8971
:1011F0009C890E945B01F101E75BFF4F9183808333
:101200006D897E898F89988D0E945B01F101E55B74
:10121000FF4F918380833296D10195962D913C9119
:101220009697820F931F91838083698D7A8D8B8D22
:101230009C8D0E945B01F101E15BFF4F91838083F4
:101240003296D10197962D913C919897820F931FDA
:1012500091838083E0960FB6F894DEBF0FBECDBFBA
:10126000DF91CF911F910F91FF90EF90DF90CF9082
:10127000BF90AF909F908F907F906F905F904F90B6
:101280003F902F9008952DA53EA54FA558A9C501C3
:10129000B4010E94C31069837A838B839C8395CEAB
:1012A000A30192016BA17CA18DA19EA10E94C410FB
:1012B000698F7A8F8B8F9C8FD5CEA50194016BA1FE
:1012C0007CA18DA19EA10E94C4106D8B7E8B8F8B03
:1012D000988F18CF2F923F924F925F926F927F928A
:1012E0008F929F92AF92BF92CF92DF92EF92FF9236
:1012F0000F931F93CF93DF938C01EB011A0163309F
:1013000071051CF4015011092C96B801012E000C36
:10131000880B990B0E94711220E030E048EC52E4F7
:101320000E94C7110E94AC126B017C0120E030E0EA
:1013300040E85EE30E9420140E94AC124B015C0165
:10134000B80164597D4E072E000C880B990B0E9442
:10135000711220E030EA46EB53E40E9420140E9410
:10136000AC122B013C012196BE01DD0F880B990BBD
:101370000E94711221E03DEC44EF51E40E942014E0
:101380000E94AC129B01AC01C301B2010E94C410C7
:101390002B013C01B101330C880B990B0E94711297
:1013A0009B01AC01C301B2010E94C4102B013C019E
:1013B000A701960160E070E080E090E40E94C31015
:1013C000A50194010E94C4109B01AC01C301B201AC
:1013D0000E94C41020E030E94EEB54E40E94C31098
:1013E000DF91CF911F910F91FF90EF90DF90CF9001
:1013F000BF90AF909F908F907F906F905F904F9035
:101400003F902F9008955F926F927F928F929F925C
:10141000AF92BF92CF92DF92EF92FF920F931F9302
:10142000CF93DF930E945B05C091D502D091D60285
:10143000FE01E55AFF4F80819181892B39F540915A
:10144000D3025091D4026091D1027091D202809166
:10145000CF029091D0020E946A096B017C0120E0CA
:1014600030E044EB53E469857A858B859C850E9446
:10147000C7119B01AC01C701B6010E94C3106FAB3D
:1014800078AF89AF9AAFCE010E94B8058091D5029E
:101490009091D602FC01E55AFF4F20813181C7EEC1
:1014A000D1E0E0E0DC01AE0FB11DAE0FB11DDB9667
:1014B0004D915C91DC974217530724F4E991EC308D
:1014C00088F3E0E0E093C302F0E0E15FFD4F80814C
:1014D0008093C2026FE372E08BED92E00E94EE0E09
:1014E000E091D502F091D602E55AFF4F80819181BB
:1014F0006CE370E00E941C15EB017C016C307105FF
:1015000024F02C9701E010E002C000E010E0CA30A7
:10151000D1052CF460E38BED92E00E94540EBE01E5
:101520008BED92E00E94700E6AE38BED92E00E94D8
:10153000540E8AE0E816F1042CF460E38BED92E09F
:101540000E94540EB7018BED92E00E94700E012BA9
:1015500019F46CE372E002C069E372E08BED92E093
:101560000E94EE0E6AE08BED92E00E94540E66E45B
:1015700072E08BED92E00E945B0EE1E080918B03C4
:101580008111E0E0E195F0E0E858FC4F8489806843
:101590000E94AC0DE091D502F091D602E55AFF4FC2
:1015A000808191816CE370E00E941C15EB017C014D
:1015B0006C30710524F02C9701E010E002C000E0CF
:1015C00010E0CA30D1052CF460E388E793E00E9474
:1015D000540EBE0188E793E00E94700E6AE388E72C
:1015E00093E00E94540EEAE0EE16F1042CF460E35E
:1015F00088E793E00E94540EB70188E793E00E94C9
:10160000700E012B19F46CE372E002C069E372E022
:1016100088E793E00E94EE0E60E288E793E00E9484
:10162000540E5AE0E52E52E0F52E512C0CE310E05A
:10163000C52DD0E0CC0FDD1FFE01EF50FE4F8080A6
:101640009180B4018BED92E00E94EE0E63E472E0B3
:101650008BED92E00E94EE0EE091D502F091D60261
:10166000EC0FFD1F83AD94ADB8010E941C153B012A
:101670005C016C3071053CF08CE0681A7108CC2478
:10168000C394D12C02C0C12CD12CEAE06E16710497
:101690002CF460E38BED92E00E94540EB3018BEDCD
:1016A00092E00E94700E6AE38BED92E00E94540E6D
:1016B000FAE0AF16B1042CF460E38BED92E00E94E7
:1016C000540EB5018BED92E00E94700ECD2819F4F6
:1016D0006CE372E002C069E372E08BED92E00E947D
:1016E000EE0E66E472E08BED92E00E945B0E80915C
:1016F000C2028515F1F0F70151907F01F0E1EF167C
:10170000F2E0FF0609F094CF66E472E08BED92E020
:10171000DF91CF911F910F91FF90EF90DF90CF90CD
:10172000BF90AF909F908F907F906F905F900C9440
:101730005B0EF401608188E793E00E94540E809173
:10174000D5029091D602C80FD91F8BAD9CADB801C0
:101750000E941C15EB015C016C3071052CF02C977C
:10176000CC24C394D12C02C0C12CD12CCA30D105B9
:101770002CF460E388E793E00E94540EBE0188E7F2
:1017800093E00E94700E6AE388E793E00E94540E93
:10179000FAE0AF16B1042CF460E388E793E00E940E
:1017A000540EB50188E793E00E94700ECD2819F41D
:1017B0006CE372E002C069E372E088E793E00E94A4
:1017C000EE0EE0918B03E23010F4E15001C0E1E055
:1017D000F0E0E858FC4F848980680E94AC0D80914D
:1017E000C302E091D502F091D602DF01A55ABF4FA6
:1017F0004D915C91682F70E09B01220F331FE20F27
:10180000F31F23AD34ADE901C41BD50B21F4EB016B
:10181000C85FD84F1AC0D7FF0CC0882321F0D195DC
:10182000C195D10906C0E901C056DA4FC41BD50BDA
:101830000CC0982F977F913031F0982F9D7F943076
:1018400011F08B3011F4CC5BD84FCE01885097400B
:10185000CC9710F5CE01B8010E941C15FC01EE0FCB
:10186000FF1FEF50FE4FC081D181BE018BED92E092
:101870000E94EE0EBE0188E793E00E94EE0E69E43E
:1018800072E08BED92E00E94EE0E69E472E088E770
:1018900093E00E94EE0E8CC0CE0184549740CC970A
:1018A000B0F56FE472E08BED92E00E94EE0E6FE413
:1018B00072E088E793E00E94EE0ECE01B8010E942C
:1018C0001C15EC0160E38BED92E00E94540E60E089
:1018D00070E08BED92E00E94700E6AE38BED92E077
:1018E0000E94540ECA30D1052CF460E38BED92E0D7
:1018F0000E94540EBE018BED92E00E94700E60E3D8
:1019000088E793E00E94540E60E070E03BC066E51B
:1019100072E08BED92E00E94EE0E66E572E088E7E1
:1019200093E00E94EE0ECE01B8010E941C156B01DF
:10193000EC016A3071052CF460E38BED92E00E94BB
:10194000540EB6018BED92E00E94700E6AE38BEDAF
:1019500092E00E94540ECA30D1052CF460E38BED66
:1019600092E00E94540EBE018BED92E00E94700E38
:10197000EAE0CE16D1042CF460E388E793E00E94FD
:10198000540EB60188E793E00E94700E6AE388E780
:1019900093E00E94540ECA30D1052CF460E388E72E
:1019A00093E00E94540EBE0188E793E00E94700EFF
:1019B00066E472E08BED92E00E945B0EC0E1D0E045
:1019C00060E288E793E00E94540E2197C9F793CE16
:1019D00090E0FC01E25BFE4F2491FC01E65CFE4FCF
:1019E0008491882399F090E0880F991FFC01E05DB5
:1019F000FE4FA591B491FC01EA5DFE4F8591949153
:101A00008FB7F894EC91E22BEC938FBF0895CF92AF
:101A1000DF92EF92FF920F931F93CF93DF936C01AE
:101A20007A018B01C0E0D0E0CE15DF0581F0D8014E
:101A30006D918D01D601ED91FC910190F081E02D29
:101A4000C6010995892B11F02196EECF7E01C701C1
:101A5000DF91CF911F910F91FF90EF90DF90CF908A
:101A600008958BED92E00E940D0121E0892B09F48D
:101A700020E0822F08950E948D16EF92FF920F931F
:101A80001F93CF93DF93EC0181E0888F9B8D8C8D2A
:101A9000981305C0E889F989808185FD26C0F62E56
:101AA0000B8D10E00F5F1F4F0F731127E02E8C8DF1
:101AB000E8120CC00FB607FCFACFE889F9898081DB
:101AC00085FFF5CFCE010E940604F1CF8B8DFE017C
:101AD000E80FF11DE35AFF4FF0829FB7F8940B8F88
:101AE000EA89FB89808180620AC09FB7F894EE89F9
:101AF000FF896083E889F9898081837080648083AD
:101B00009FBF81E090E0DF91CF911F910F91FF90F7
:101B1000EF900895CF93DF93EC01888D8823C9F06F
:101B2000EA89FB89808185FD05C0A889B9898C91E6
:101B300086FD0FC00FB607FCF5CF808185FFF2CF81
:101B4000A889B9898C9185FFEDCFCE010E9406044A
:101B5000E7CFDF91CF91089540E0682F88E793E0C9
:101B60000C940205CF93DF93823028F09091870385
:101B700098609093870380938B0310928C0380E48A
:101B800080938D0380E180938E0380E580938F03A3
:101B900080917C030E94E80C80917D038F3F11F0BF
:101BA0000E94E80C80917E030E94E80CC8E7D3E015
:101BB0009E01285733408091870384FD03C084E051
:101BC00090E002C088E090E021962817390724F4BD
:101BD0008E810E94E80CECCF8BE39DE00197F1F73A
:101BE00060E080917C030E94280460E080917E0385
:101BF0000E94280480917D038F3F19F060E00E94CD
:101C000028048091870384FD20C063E088E793E087
:101C10000E94D504CBE4D6E4CE010197F1F763E04E
:101C200088E793E00E94D5042197F1F763E088E705
:101C300093E00E94D50483E592E00197F1F762E01A
:101C400088E793E00E94D50415C080620E94AC0D25
:101C50008BE496E40197F1F78091870380620E94FC
:101C6000AC0D83E592E00197F1F7809187038062E4
:101C70000E94AC0D8091870380620E94AC0D84E0CD
:101C8000809388038CE00E94AC0D81E00E94AC0D33
:101C90008BE39FE10197F1F782E08093890386E06F
:101CA000DF91CF910C94AC0DDC01ED91FC91019092
:101CB000F081E02D09946115710579F0FB01019027
:101CC0000020E9F73197AF01461B570BDC01ED917E
:101CD000FC910280F381E02D099480E090E008956A
:101CE0004F925F926F927F928F929F92AF92BF922C
:101CF000CF92DF92EF92FF920F931F93CF93DF93D8
:101D0000CDB7DEB7A1970FB6F894DEBF0FBECDBF3B
:101D10008C016B01770FEE08FF08F7FE2AC06DE219
:101D20000E94540E5C0122273327A9012C193D097A
:101D30004E095F0919A2CE0181967C019AE0492ED5
:101D4000512C612C712CCA01B901A30192010E948E
:101D50003015605DF70162937F0121153105410562
:101D6000510589F7BF01C8010E945B0E8A0D9B1DBA
:101D70001EC0A701960119A2CE0181967C018AE0BE
:101D8000882E912CA12CB12CCA01B901A501940176
:101D90000E943015605DF70162937F0121153105C6
:101DA0004105510589F7BF01C8010E945B0EA1964C
:101DB0000FB6F894DEBF0FBECDBFDF91CF911F915C
:101DC0000F91FF90EF90DF90CF90BF90AF909F90DA
:101DD0008F907F906F905F904F9008950C945B0E62
:101DE0001F920F920FB60F9211242F933F934F9390
:101DF0005F936F937F938F939F93AF93BF93EF9373
:101E0000FF938BED92E00E940604FF91EF91BF914A
:101E1000AF919F918F917F916F915F914F913F9182
:101E20002F910F900FBE0F901F9018951F920F9239
:101E30000FB60F9211242F938F939F93EF93FF93DD
:101E4000E091EB02F091EC028081E091F102F091DF
:101E5000F20282FD12C090818091F4028F5F8F7335
:101E60002091F502821751F0E091F402F0E0E55282
:101E7000FD4F958F8093F40201C08081FF91EF9117
:101E80009F918F912F910F900FBE0F901F901895DB
:101E9000EBEDF2E01382128288EE93E0A0E0B0E076
:101EA00084839583A683B7838FE192E091838083B7
:101EB00085EC90E09587848784EC90E0978786870F
:101EC00080EC90E0918B808B81EC90E0938B828B07
:101ED00082EC90E0958B848B86EC90E0978B868BE0
:101EE000118E128E138E148EE8E7F3E013821282A5
:101EF00081E392E0918380838CE084838FEF8583FC
:101F00008BE0868385E0878384E0808783E0818718
:101F100087E082871386148615861686178681E0E9
:101F20000C94B20D789484B5826084BD84B58160D0
:101F300084BD85B5826085BD85B5816085BD809194
:101F40006E00816080936E0010928100809181000C
:101F50008260809381008091810081608093810004
:101F6000809180008160809380008091B1008460C6
:101F70008093B1008091B00081608093B000809127
:101F80007A00846080937A0080917A0082608093E6
:101F90007A0080917A00816080937A0080917A0043
:101FA000806880937A001092C100E091EB02F0917A
:101FB000EC0282E08083E091E702F091E802108277
:101FC000E091E902F091EA028FEC80831092F30233
:101FD000E091EF02F091F00286E08083E091ED0263
:101FE000F091EE02808180618083E091ED02F091BA
:101FF000EE02808188608083E091ED02F091EE0234
:10200000808180688083E091ED02F091EE02808112
:102010008F7D808382E00E94B20D8DE590E00E946A
:102020006C15EC011A821B8283E08C8329E130E07D
:1020300038A32F8F84E190E09AA389A33CA32BA31C
:102040002AE030E03EA32DA398A78FA3D093D60219
:10205000C093D50283EE97E09093D0028093CF0295
:1020600087E090E09093D2028093D10225E130E0A6
:102070003093D4022093D30227E130E03093CE0294
:102080002093CD029093CC028093CB029093CA020E
:102090008093C902FE01E55AFF4F8BE695E09183DC
:1020A000808384E591E0998388831A8A198A1C8A3F
:1020B0001B8A1E8A1D8A188E1F8A1A8E198E1C8EE4
:1020C0001B8E1E8E1D8E0E945B0586ED91E5AAEC8F
:1020D000B1E48D839E83AF83B8878AE69DEFADE43C
:1020E000B2E489879A87AB87BC8780E090E0A0E460
:1020F000B0E48D879E87AF87B88B45E150E067E0FD
:1021000070E083EE97E00E946A0921E53BE742E137
:102110005EE30E94C3106FAB78AF89AF9AAFCE0178
:102120000E94B8050E94030A80E6C82E8AEED82EC7
:10213000E12CF12C2FB7F8946091D7027091D8025E
:102140008091D9029091DA022FBFA70196010E94D7
:102150003015672B682B692B11F40E94030A0E942B
:102160001901E8CF9F939F770E94C3120F90002020
:1021700042F49058A2EA2AED3FE049E450E40E947C
:10218000DB100C94AD135058BB27AA270E94DB101C
:102190000C94AD130E94741338F00E947B1320F04E
:1021A00039F49F3F19F426F40C9436130EF4E0959D
:1021B000E7FB0C940713E92F0E94D21358F3BA17C8
:1021C000620773078407950720F079F4A6F50C944D
:1021D0000C140EF4E0950B2EBA2FA02D0B01B901B3
:1021E00090010C01CA01A0011124FF27591B99F08D
:1021F000593F50F4503E68F11A16F040A22F232F99
:10220000342F4427585FF3CF469537952795A795E8
:10221000F0405395C9F77EF41F16BA0B620B730B8F
:10222000840BBAF09150A1F0FF0FBB1F661F771F00
:10223000881FC2F70EC0BA0F621F731F841F48F4B5
:10224000879577956795B795F7959E3F08F0B0CF3E
:102250009395880F08F09927EE0F97958795089525
:102260009F939F77EEE389379E0728F4E8E6F0E036
:102270000E9460130CC00E94C3129058A2EA2AED7B
:102280003FE049EC5FE30E94DB100E94AD130F902A
:1022900007FC905808950E94741360F080E891E064
:1022A00009F49EEF0E947B1328F040E851E071F49E
:1022B0005EEF0CC00C9436130C940C14E92FE078EC
:1022C0000E94D21340F3092E052AB1F326173707CF
:1022D0004807590738F00E2E07F8E02569F0E02589
:1022E000E0640AC0EF6307F8009407FADB01B90164
:1022F0009D01DC01CA01AD01EF930E94DE110E9435
:10230000AD130E948E115F91552339F02BED3FE004
:1023100049E450FD49EC0C94C4100895DF93DD2787
:10232000B92FBF7740E85FE31616170648075B072B
:1023300018F4D92F0E9418149F938F937F936F9353
:102340000E94DB14ECE7F0E00E9439130E94AD1309
:102350002F913F914F915F910E943314DD2351F0F3
:102360009058A2EA2AED3FE049EC5FE3D0785D2780
:102370000E94DB10DF910C94AD130E94E31208F46D
:1023800081E008950E948413E3950C94BE130E948B
:10239000DB110C94AD130E947B1358F00E94741350
:1023A00040F029F45F3F29F00C94071351110C946D
:1023B0000D140C9436130E94D21368F39923B1F3D1
:1023C000552391F3951B550BBB27AA27621773075B
:1023D000840738F09F5F5F4F220F331F441FAA1FEF
:1023E000A9F335D00E2E3AF0E0E832D091505040AB
:1023F000E695001CCAF72BD0FE2F29D0660F771F59
:10240000881FBB1F261737074807AB07B0E809F03E
:10241000BB0B802DBF01FF2793585F4F3AF09E3FC3
:10242000510578F00C9407130C940D145F3FE4F3FE
:10243000983ED4F3869577956795B795F7959F5F06
:10244000C9F7880F911D9695879597F90895E1E052
:10245000660F771F881FBB1F621773078407BA07B1
:1024600020F0621B730B840BBA0BEE1F88F7E0950C
:1024700008950E9440126894B1110C940D140895AF
:102480000E94DA1388F09F5798F0B92F9927B75117
:10249000B0F0E1F0660F771F881F991F1AF0BA9508
:1024A000C9F714C0B13091F00E940C14B1E0089546
:1024B0000C940C14672F782F8827B85F39F0B93F38
:1024C000CCF3869577956795B395D9F73EF49095BB
:1024D0008095709561957F4F8F4F9F4F0895E89439
:1024E00009C097FB3EF490958095709561957F4F5C
:1024F0008F4F9F4F9923A9F0F92F96E9BB2793950A
:10250000F695879577956795B795F111F8CFFAF419
:10251000BB0F11F460FF1BC06F5F7F4F8F4F9F4F4A
:1025200016C0882311F096E911C0772321F09EE8A8
:10253000872F762F05C0662371F096E8862F70E00E
:1025400060E02AF09A95660F771F881FDAF7880FE8
:102550009695879597F908950E94F41390F09F3708
:1025600048F4911116F00C940D1460E070E080E8CE
:102570009FEB089526F41B16611D711D811D0C949F
:102580000D130C942813DF93CF931F930F938B019C
:10259000EC01E9EAF0E00E9439130E94AD139801C2
:1025A000AE018B01EC0160E070E080E89FE30E94E7
:1025B000C3100E949B149801AE010F911F91CF91FF
:1025C000DF910C943314990F0008550FAA0BE0E823
:1025D000FEEF16161706E807F907C0F012161306E5
:1025E000E407F50798F0621B730B840B950B39F425
:1025F0000A2661F0232B242B252B21F408950A268B
:1026000009F4A140A6958FEF811D811D089597F9CA
:102610009F6780E870E060E00895882371F4772375
:1026200021F09850872B762F07C0662311F4992745
:102630000DC09051862B70E060E02AF09A95660FED
:10264000771F881FDAF7880F9695879597F9089571
:102650009F3F31F0915020F4879577956795B79516
:10266000880F911D9695879597F908959FEF80ECB7
:102670000895DF93CF931F930F93FF92EF92DF9212
:102680007B018C01689406C0DA2EEF010E9433149E
:10269000FE01E894A5912591359145915591A6F3B8
:1026A000EF010E94DB10FE019701A801DA9469F79F
:1026B000DF90EF90FF900F911F91CF91DF910895E0
:1026C0009F938F937F936F93FF93EF939B01AC0145
:1026D0000E942014EF91FF910E9439132F913F9196
:1026E0004F915F910C94201400240A94161617063B
:1026F00018060906089500240A94121613061406F3
:10270000050608950C9436130E94DA13D8F3E89462
:10271000E0E0BB279F57F0F02AED3FE049EC06C010
:10272000EE0FBB0F661F771F881F28F0B23A6207B3
:102730007307840728F0B25A620B730B840BE3957E
:102740009A9572F7803830F49A95BB0F661F771F01
:10275000881FD2F790480C942A13092E0394000C7A
:1027600011F4882352F0BB0F40F4BF2B11F460FF2B
:1027700004C06F5F7F4F8F4F9F4F0895EF93E0FF2F
:1027800007C0A2EA2AED3FE049EC5FEB0E94DB10B4
:102790000E94AD130F90039401FC9058E1EDF0E01E
:1027A0000C94601357FD9058440F551F59F05F3F2C
:1027B00071F04795880F97FB991F61F09F3F79F063
:1027C00087950895121613061406551FF2CF4695E5
:1027D000F1DF08C0161617061806991FF1CF869567
:1027E00071056105089408950E94DA13A0F0BEE710
:1027F000B91788F4BB279F3860F41616B11D672FF0
:10280000782F8827985FF7CF869577956795B11DC4
:1028100093959639C8F30895E894BB2766277727E0
:10282000CB0197F908950E94E31208F48FEF089501
:102830009B01AC0160E070E080E89FE30C94C7115D
:102840000E9433140C94AD130E94741338F00E944C
:102850007B1320F0952311F00C9407130C9436137E
:1028600011240C940D140E94D21370F3959FC1F3A0
:10287000950F50E0551F629FF001729FBB27F00D2E
:10288000B11D639FAA27F00DB11DAA1F649F662783
:10289000B00DA11D661F829F2227B00DA11D621FD2
:1028A000739FB00DA11D621F839FA00D611D221F8C
:1028B000749F3327A00D611D231F849F600D211D70
:1028C000822F762F6A2F11249F5750409AF0F1F0F3
:1028D00088234AF0EE0FFF1FBB1F661F771F881F5C
:1028E00091505040A9F79E3F510580F00C9407137A
:1028F0000C940D145F3FE4F3983ED4F386957795DE
:102900006795B795F795E7959F5FC1F7FE2B880F01
:10291000911D9695879597F908959F930E9484132A
:102920000F9007FCEE5F0C94BE1319F416F40C9490
:1029300036130C9428130E94DA13B8F39923C9F3C1
:10294000B6F39F57550B87FF0E9409150024A0E698
:1029500040EA900180585695979528F4805C660F60
:10296000771F881F20F026173707480730F4621BAF
:10297000730B840B202931294A2BA69517940794B1
:10298000202531254A2758F7660F771F881F20F02A
:1029900026173707480730F4620B730B840B200DA2
:1029A000311D411DA09581F7B901842F9158880FE1
:1029B0009695879508959B01AC010C942014DF93A4
:1029C000D92F0E948413E695D7952AED3FE049E47C
:1029D0005FE3B33A6207730784079507D7953AF028
:1029E000A2EA49EC90680E94DB100E94AD13EFEE62
:1029F000F0E00E946013DD0F13F00E941814DD0F49
:102A00000BF49058DF9108950E94E312880B990B04
:102A1000089591505040660F771F881FD2F7089590
:102A2000991B79E004C0991F961708F0961B881F20
:102A30007A95C9F78095089597FB072E16F40094B0
:102A400007D077FD09D00E94521507FC05D03EF44F
:102A5000909581959F4F0895709561957F4F08954A
:102A6000A1E21A2EAA1BBB1BFD010DC0AA1FBB1F92
:102A7000EE1FFF1FA217B307E407F50720F0A21B04
:102A8000B30BE40BF50B661F771F881F991F1A9471
:102A900069F760957095809590959B01AC01BD019B
:102AA000CF010895AA1BBB1B51E107C0AA1FBB1F82
:102AB000A617B70710F0A61BB70B881F991F5A95CA
:102AC000A9F780959095BC01CD010895EE0FFF1FE9
:102AD0000590F491E02D09940F931F93CF93DF930A
:102AE0008230910510F482E090E0E0919203F09141
:102AF000930320E030E0A0E0B0E0309719F140818E
:102B000051810281138148175907C8F0841795072E
:102B100069F4109731F012960C93129713961C9348
:102B200027C0009392031093930322C0211531050F
:102B300019F04217530718F49A01BD01EF01DF01A4
:102B4000F801DBCF21153105F9F0281B390B2430B2
:102B5000310580F48A819B816115710521F0FB01AB
:102B60009383828304C09093930380939203FE0126
:102B7000329644C0FE01E20FF31F819391932250DD
:102B80003109398328833AC0209190033091910311
:102B9000232B41F42091C6013091C701309391035A
:102BA000209390032091C4013091C5012115310576
:102BB00041F42DB73EB74091C8015091C901241B83
:102BC000350BE0919003F0919103E217F307A0F425
:102BD0002E1B3F0B2817390778F0AC014E5F5F4F73
:102BE0002417350748F04E0F5F1F50939103409311
:102BF00090038193919302C0E0E0F0E0CF01DF9178
:102C0000CF911F910F910895CF93DF93009709F40F
:102C100081C0FC01329713821282A0919203B0917D
:102C20009303109781F420813181820F931F2091AB
:102C30009003309191032817390751F5F0939103D0
:102C4000E093900367C0ED0120E030E0CE17DF078E
:102C500040F44A815B819E0141155105F1F0EA0182
:102C6000F5CFD383C28340815181840F951FC8174C
:102C7000D90759F488819981840F951F0296918311
:102C800080838A819B81938382832115310529F476
:102C9000F0939303E09392033DC0E901FB83EA8341
:102CA00049915991C40FD51FEC17FD0761F480813C
:102CB0009181840F951F0296E9019983888382810F
:102CC00093819B838A83E0E0F0E012968D919C9142
:102CD0001397009719F0FD01DC01F7CF8D919C91BE
:102CE00011979D012E5F3F4F820F931F20919003FC
:102CF000309191032817390769F4309729F410921D
:102D000093031092920302C013821282B093910334
:102D1000A0939003DF91CF91089581E090E0F89423
:082D20000C949216F894FFCF09
:102D280000009041010000000000000090410000F8
:102D38007041010000000000000070410000904157
:102D480001000000000000008841000094410100DB
:102D5800000000010000B44200009C410100000096
:102D6800000000008C4100009041010000000000BC
:102D780000008841000090410100000000010000AF
:102D8800B44200009041010000404000000088412A
:102D98000000904101000000000000009041000088
:102DA800904101000000000000008C4100009041AB
:102DB800010000000000000088410000904101006F
:102DC8000000000000008841000090410100000060
:102DD8000000000088410000904101000000000050
:102DE800000088410000940380000000A04000001B
:102DF800C0400000404100005041000090410000E8
:102E08009041000090410001020304050608090AE8
:102E18000B61026602710279027E0289028D0297B5
:102E2800029E02A502B202B70200020305080A00C8
:102E38000002030305050808080A0A000000003D0F
:102E48000D070DDC008A0D0D01EB00FF00000000EE
:102E5800005505070D24012301504D00414D005434
:102E6800494D450909000D0A002054494D450049BE
:102E780051414D41200052454D41494E494E472050
:102E88000046414A520046414A525F4951414D412C
:102E98000053554E52495345004455485200445535
:102EA80048525F4951414D410041535200415352EC
:102EB8005F4951414D410053554E534554004D41D2
:102EC80047524942004D41475249425F4951414D9D
:102ED80041004953484100495348415F4951414DD8
:022EE8004100A7
:00000001FF
